:020000040004F6
:10D800008D9B07002C0C0800000000000348854693
:10D8100000F058FC004800479DE5070000FC002090
:10D8200030B50B46014600202022012409E00D46B8
:10D83000D5409D4205D31D469540491B2546954040
:10D8400040191546521E002DF1DC30BD70B5002484
:10D850002546002801DA01244042002901DA012589
:10D860004942FFF7DDFFAC4200D04042002C00D01F
:10D87000494270BDFFB585B006460698144602AD14
:10D88000022846D3002C44D000200390284680383C
:10D8900006990027491EFF430191009023E0604351
:10D8A000801961438A1901461046089A904700285A
:10D8B00004DCB8002958C919295014E068682246C8
:10D8C000604381190098C06F6043801908E00B78AD
:10D8D0009C4603780B7063460370401C491C521E23
:10D8E000002AF4D17F4200986968C06F8842D6DC74
:10D8F00022463046089BFFF7BDFF00980699C06F8F
:10D900002246091A401C60438019491E089BFFF7F4
:10D91000B1FF09B0F0BD10B5431A934209D2831884
:10D92000881803E0401E01785B1E1970521EF9D260
:10D9300010BD03460B439B0703D009E008C9121F23
:10D9400008C0042AFAD203E00B780370401C491C7B
:10D95000521EF9D210BDD2B201E00270401C491E25
:10D96000FBD270470022F6E710B513460A4604467C
:10D970001946FFF7F0FF204610BD421E5378521C97
:10D98000002BFBD10B781370491C521C002BF9D1D2
:10D99000704730B505462A460B4610781C78521C55
:10D9A0005B1C002801D0A042F7D0002C03D0002837
:10D9B00002D06D1CEFE7284630BD10B5044605E0E7
:10D9C0000B780370401C002B00D0491C521EF7D26C
:10D9D000204610BD421C0178401C0029FBD1801A52
:10D9E000704710B5002200E0521C835C8C5CA3429F
:10D9F00001D1002BF8D1D8B2E1B2401A10BD30B538
:10DA000004460020034600E05B1C934203D2E05C26
:10DA1000CD5C401BF8D030BD03460A780270401C34
:10DA2000491C002AF9D1184670470321001D401EE9
:10DA3000037812021A43491EF9D51046704703466F
:10DA400003220870000A491C521EFAD51846704776
:10DA500070B506462DF0D8FE046805460A2200215E
:10DA6000304600F01FFA2C6070BD70B506462DF0F0
:10DA7000CBFE046805460A220021304600F012FA67
:10DA80002C6070BD70B506462DF0BEFE04680546DC
:10DA90000A220021304600F03DFA2C6070BD0000E3
:10DAA000F0B507460846584087B0C00F04904800BC
:10DAB0000E46590040084908BC1A884105D238462C
:10DAC00031461E4617460B46024658004008104392
:10DAD0004CD0300D039040055900400D490D059084
:10DAE000401A0290402872DA18030121000B090540
:10DAF0000843019004980092002805D001995242F1
:10DB00000020884100920190029840210A1A019950
:10DB1000009800F0A3F905460C466B4607CB00F0D1
:10DB2000ADF9C0197141039A0E0D0023D717564065
:10DB30001A467A40164344D0049A002A2DD0029AFD
:10DB4000012A039A15DC1205C01A914101263605F7
:10DB5000001C7141D20F059ED207009301920296DC
:10DB60002A46234600F028FA07B0F0BD3846314671
:10DB7000FAE71605224A0F46B218C01AB74101212A
:10DB80000905001C4F4100187F41114618187941C2
:10DB9000E20F10436D19644113E0E2076D0815436D
:10DBA0006408C2071443039A01261205C01A914162
:10DBB0003605001C7141CE07400830434908C018A3
:10DBC00051412A46234600F0EAF9CDE7FFE70498E1
:10DBD00001224000C117121A00238B4104983146DC
:10DBE000C417381AA141EEE730B40124E4076340BA
:10DBF00030BC55E730B40124E407614030BC4FE746
:10DC00000000E0FFF0B51FB488B00B99099800241C
:10DC100048400999C00F490049080991C0070B996C
:10DC20000090490049080B9109990898A6460843B5
:10DC30001CD00B990A98084318D009980124400079
:10DC4000420D4800410D099824050003000B2043B4
:10DC500009900B980003000B20430B9050181C49AF
:10DC60004018002201901446104605E000200146AD
:10DC70000DB0F0BD032801DA034600E003239C4603
:10DC8000C11A0AAE0AE05F0008ADED5B4F00F75B1A
:10DC90007D430027AA187C41491C5B1E6145F2DDCB
:10DCA000410004AB5A522104120C0A43240C401CBC
:10DCB0000828DFDB019802900099704601910090DE
:10DCC000059B049A0799069800F076F9D0E70000C2
:10DCD0000DFCFFFFF0B50C465C4085B0E40FE40797
:10DCE00003944C00002664085900944649080246F3
:10DCF0000296224321D062460A431ED06200570D8D
:10DD00004A000E032303550D012402462C49240525
:10DD1000781B1B0B360B40182343264361460090AB
:10DD20001C46501AB44103D30098401C009002E0F6
:10DD3000921800985B41002803DA0020014605B0E4
:10DD4000F0BD0020012109050746864611E0644622
:10DD50001D46141BB54106D36546521BB34174469C
:10DD600007430C43A646CD074008490828439218AC
:10DD70005B4105460D43EAD11046184313D0604677
:10DD8000194650407140084306D06046101AB3410E
:10DD900006D20122002306E000220123DB0702E075
:10DDA0000122D2435310009874460105381C61418A
:10DDB000029C039D0019694100F0F1F8BFE70000E3
:10DDC000FD0300000EB505490291002100910A46AD
:10DDD0000B46019100F0F0F803B000BD33040000E1
:10DDE0000EB5054A0292002200921346019200F0FD
:10DDF000E3F803B000BD000033040000F0B51FB429
:10DE00000646002082B005464024019100901BE0A8
:10DE1000019922460F46304600F066F9049A059BA8
:10DE2000801A994110D310461946224600F016F880
:10DE3000361A8F410197224601200021009F00F0F1
:10DE40000DF838184D4100902046641E0028DFDC94
:10DE5000019B00982946324607B0F0BD10B5202A34
:10DE600004DB0146203A9140002010BD9140202360
:10DE70009C1A0346E3401943904010BD10B5202A78
:10DE800006DBCB170846203A1041C1170B4306E0CA
:10DE90000B461341D0402024A21A91400843194652
:10DEA00010BD0000F7B5009C0F4600262578641CC5
:10DEB000002D05D000F02AF90068405DC007F5D1BB
:10DEC0002B2D02D02D2D18D0641E39462046029AE3
:10DED00000F020F9002F04D03968A14201D1009947
:10DEE00039607105022400290BDA4042002803DD65
:10DEF0002DF08AFC0460A007FEBD012080020643CD
:10DF0000E3E70028F8DA2DF07FFC04600048FEBD4E
:10DF1000FFFFFF7FF7B5009C0E4600252778641CA5
:10DF2000002F05D000F0F2F80068C05DC007F5D101
:10DF30002B2F02D02D2F1ED0641E31462046029A70
:10DF400000F03BF9002E04D03268A24201D1009AC1
:10DF500032606A050224002A18DA002245420026AF
:10DF60008A413346751B934109DB002240428A41B6
:10DF7000114603B0F0BD012080020543DDE72DF01E
:10DF800043FC046000200121C907F2E70029F0DA10
:10DF90002DF03AFC04600020C0434108E9E710B5C9
:10DFA000002B08DA0024401C614192185B411A439F
:10DFB00001D14008400010BDF0B51FB482B0054645
:10DFC0000C0003D008462DF097FB02E02DF094FBE7
:10DFD00020300246009021462846FFF73FFF049B71
:10DFE000059A04460F4618431143084314D01846B7
:10DFF00010431BD0009840210A1A1846059900F0DA
:10E0000073F805460E46009A05990498FFF726FF17
:10E01000084305D0012004E02046394607B0F0BD92
:10E020000020C11705430E432C43374300990E9837
:10E030006305401A7905E40A00220C43FD0A0A3000
:10E0400002D500200146E9E70105101969410C9C41
:10E050000D9D00196941FFF7A2FFDFE74A000903A0
:10E060000123090B1B0519430A4B10B5520D9A42A7
:10E0700002DA0020014610BD064B34339A4203DC1D
:10E080009A1A00F031F810BD034BD218FFF7E6FEE4
:10E0900010BD0000FF030000CDFBFFFF10B50029FD
:10E0A00004DB0124E40740428C412146002B04DBC1
:10E0B0001C460123DB075242A341994200D1904202
:10E0C00010BD0000064C0125064E05E0E36807CCB4
:10E0D0002B430C3C98471034B442F7D3FFF79AFB1C
:10E0E00074DE080084DE080010B5202A04DB084630
:10E0F000203AD040002110BD0B46D340D040202410
:10E10000A21A91400843194610BD0000004870470C
:10E11000FCD30800F7B582B0029C00272078641C6D
:10E1200015460197302802D0002D15D015E0207833
:10E130000127641C782804D0582802D0002D09D06B
:10E140000BE0002D01D0102D07D1002710252078DD
:10E15000641C02E0082500E00A250026009610E075
:10E160000099012769430818020C294680B27143BF
:10E1700000908E183804864201D301200190207847
:10E18000641C294600F0C1F80028E9DA0398002849
:10E1900005D0002F01D0641E00E0029C04600198AD
:10E1A000002806D02DF030FB02210160C81E05B00A
:10E1B000F0BD009930040843F9E7F7B584B0049C3A
:10E1C00000212078641C154601910291302802D06C
:10E1D000002D17D017E0012001902078641C7828CA
:10E1E00004D0582802D0002D0AD00CE0002D01D018
:10E1F000102D08D10020019010252078641C02E029
:10E20000082500E00A250027E9173E4600970391FC
:10E210001CE0012101910099334669430A180092DC
:10E2200028463A46039900F033F8009A130C00226E
:10E23000C7185141009A0E4690B200900120000488
:10E24000814201D3012002902078641C294600F00D
:10E250005CF80028DDDA0598002807D0019800282E
:10E2600001D0641E00E0049C059804600298002818
:10E2700007D02DF0C9FA02210160C81E014607B07F
:10E28000F0BD380C31040143009A38041043F6E71E
:10E29000F0B51FB486B0002000900190029006985F
:10E2A000069980B204900798090C020400141143E7
:10E2B00007900027089D099806913E463C4603902A
:10E2C0000398A9B20204000C039004982D0C154386
:10E2D000484300212246FFF7C1FDC71971411034A0
:10E2E0000E46402CECDB3846029AFFF7B7FD009A49
:10E2F000019B8018009059410298019110300290C2
:10E300004028CCDB00980BB0F0BD3A2800D2303862
:10E31000202302469A43412A01D3104637388842C7
:10E3200001D30020C043704770B58C180578401C9D
:10E330006B075B0F01D10378401C2A1106D10278CC
:10E34000401C03E006780E70401C491C5B1EF9D18E
:10E350002B0705D40023521E0DD40B70491CFAE77D
:10E360000378401CCB1A921C03E01D780D70491CE9
:10E370005B1C521EF9D5A142D8D3002070BD08B550
:10E3800068460CF040FF0098401C0090684620F062
:10E39000ABFB08BD10B5421ED3175B0F9B18DC10FA
:10E3A000DB08401EDB00C31A0A5D8020D840024310
:10E3B0000A5510BDFFB58DB007460C460025FEE09E
:10E3C0008449284609F09CFC002800D0F5E08148EB
:10E3D0002030807C002800D1EFE07E482030827C15
:10E3E0003946401CFFF70BFB00287DD122787A4983
:10E3F000097827235943794BC918881C3946FFF7F8
:10E400008AFA21787448007827225043734A80188A
:10E41000203081700F9800780107090F6E4800784E
:10E42000272250436D4A11546B48007827214843F6
:10E430001146085C002806D1102167480078272281
:10E440005043664A11540F98007880210840624971
:10E45000097827225143614A8918487000215E4893
:10E460000078272250435D4A80182030C1705A48F6
:10E470000178007827225043584A801820300171D3
:10E480005549097827225143544A89182031109858
:10E4900088715149097827225143504A8918084602
:10E4A00012301021FFF75EFA4D48FFF7BEFA002840
:10E4B00031D002F027FF00282DD14948FFF7B5FAE7
:10E4C000102812D946480C30FFF7AFFA42490290A3
:10E4D000097827225143414A8918084612301022F0
:10E4E0000299FFF718FA59E066E03D48FFF79DFAF8
:10E4F00002903B480C30FFF798FA374901900978B1
:10E5000027225143354A891808461230029A019948
:10E51000FFF701FA42E03348FFF787FA002815D0E9
:10E520003048FFF782FA02902E480C30FFF77DFA50
:10E5300029490190097827225143284A8918084619
:10E540001230029A0199FFF7E6F927E020781028A7
:10E5500000DD32E0002608E0BA5D710004ABC818A7
:10E5600021A12DF091F8701CC6B22078B042F3DCE6
:10E5700004A8FFF72FFAC0B203900398102801DD1A
:10E58000102003901449097827225143134A89180F
:10E590000846123004A9039AFFF7BDF90E48007827
:10E5A000272148430D494018203045710A4800781A
:10E5B000401C0949087005E000BF681CC5B2202D49
:10E5C00000DAFDE600BF202D02D1012011B0F0BD20
:10E5D0000020FBE7665F0020AC250020F0590020FA
:10E5E000E92A0020D32500202530327800000000E1
:10E5F00070B594B006A906AC0CAD002814D000206C
:10E600000FF004FB812004900A214DA0241D0291EB
:10E61000009001950394002306224E217D2000F0F6
:10E6200079FEC0B2002842D001200290002444A00C
:10E630000090019503950494234602224E219620D2
:10E6400000F068FEC0B2002833D002220CA90BA84B
:10E6500001F0E8FE08A8007B4E253A4E00282AD09B
:10E6600001F099FF0B9006A90FF0D0FAC0B2002874
:10E6700031D008A8007B00F091F8C0B201283AD050
:10E68000022844D0002842D003284CD02EA003906A
:10E69000102315220121029601950094002010F00C
:10E6A000FBFFC8202BF074FB012014B070BD0020CC
:10E6B000FBE70020F9E727A0039010231522012192
:10E6C000029601950094002010F0E6FFC8202BF080
:10E6D0005FFB0120E9E723A003901023152201210D
:10E6E000029601950094002010F0D6FFC8202BF070
:10E6F0004FFB0120D9E71FA0039010231522012111
:10E70000029601950094002010F0C6FFC9E715A0FD
:10E7100003901023152201210296019500940020F8
:10E7200010F0BAFFBDE716A00390102315220121B7
:10E73000029601950094002010F0AEFFB1E70000B2
:10E7400000000000FFFF0000CCEDBCD3CAA7B0DC86
:10E7500000000000B2BBC4DCD3EBD6F7B9DCCFE0DD
:10E76000CDAC0000B8C3B2D9D7F7D4B1D2D1B4E69A
:10E77000D4DA0000CCEDBCD3B3C9B9A600000000C8
:10E78000C7EBCAE4C8EBD0A1D3DABBF2B5C8D3DA81
:10E790003230B5C4CAFDD7D600000000FEB504462D
:10E7A0006E466D46002C05D0632C03D0142C03D983
:10E7B0000320FEBD0220FEBD1048E10008180746F8
:10E7C0003246082110F0F4FB68460078FF2801D09B
:10E7D0000020FEBD0020694608704C700220887041
:10E7E000FF20C870042206A1281DFFF794F83846C0
:10E7F0003246082110F054FC0120FEBD0820000024
:10E80000000000000000000008B568460CF004FDA0
:10E810000098401C0090684620F070F908BD000088
:10E8200008B5022168460DF0CDFD68460088034911
:10E83000884201D1012008BD002008BD5AA5000072
:10E8400070B50446842C27D0852C25D0862C23D067
:10E85000872C21D0882C1FD0892C1DD0144802224F
:10E8600012A10546FFF7CBF800280DD0042211A114
:10E870002846FFF7C4F8002806D0092C04D0284603
:10E8800005F030FF14F094FD02220BA12846FFF79B
:10E89000B6F8002802D007E0002070BD092C03D193
:10E8A00011F086FF28F0B4FB002070BD303000006E
:10E8B00019330020000000004130000010B50F485F
:10E8C0000068202816D006DC072813D0082811D0AD
:10E8D000092806D10EE021280CD022280AD02328AE
:10E8E00008D0022206A10748FFF789F8002803D0C4
:10E8F000012010BD002010BD002010BD1C430020D1
:10E900003030000019330020F0B585B005460E46C2
:10E910000027344601950020029017E0FF20049064
:10E9200002A803AB04AA21460090019814F01CF839
:10E930000746FF2F09D104990198401801900498C7
:10E94000241A002C02D1002700E001E0002CE5D1C0
:10E9500000BF384605B0F0BDFFB5FFB0FFB095B0C1
:10E9600017461D460021FFA8016401210A910021DC
:10E970000991FFAA4432111D406D23F0B1F90146FF
:10E98000FFA8C164806C702808D0FFA8806C612843
:10E9900004D0FF207FB07FB019B0F0BDFFA8C66CD7
:10E9A000446C416C08910021079102F089FF00201E
:10E9B000FFA9886310E10021FFA801643C30FFAB90
:10E9C0004833021D21460090304613F0CDFF0990D8
:10E9D000FF2824D1FFA8006C241AFFA8006C361869
:10E9E000002C01D100200990FFA8806C612812D171
:10E9F000FFA8016CC06B0918FFA8806B091A079863
:10EA0000091807910021FFA881630A98002811D0F6
:10EA100000200A90E0E0FFA8C16B8163DCE00024E5
:10EA20000998002806D00998012801D102200990F0
:10EA30000998AFE76B48FEF7F8FF00286ED0FFA8F3
:10EA4000806C612817D1002C15D0A41CB61E664816
:10EA50000078FF2203325043644A8018E030C477C4
:10EA600061490978FF2203325143604A88182246DF
:10EA70003146FEF750FFFFA8C06F401CC1B25A4894
:10EA80000078FF2203325043584A8018FF3001308B
:10EA900001705748017854480078FF2203325043F0
:10EAA000524A8018FF30013041704F480078401CB6
:10EAB0004D4908704F490020FEF7C1FF49480C300E
:10EAC000FEF7B3FF05904748FEF7AFFFC1B2FFA8BE
:10EAD000303004910BA9021D009201910290002197
:10EAE0000420059B049A09F025FE0690002801D019
:10EAF000E0204FE70BA80DF06FFC0690FE2801D137
:10EB0000E02047E7FFA82430017C0BA806F0C0F9FD
:10EB1000002801D0E0203DE701203BE73648FEF722
:10EB200084FFC0B2FFA94863002844D03148FC38B4
:10EB3000FEF77BFF002821D02E48F038FEF775FF46
:10EB400005902C48FC38FEF770FF2C4A049005997C
:10EB50000BF039F800280FD02648F038FEF765FF93
:10EB600005902448FC38FEF760FF254A049005997B
:10EB70000BF029F8002801D1E0200BE71E481530E2
:10EB8000FEF753FF002801D1E02003E728460AF0F2
:10EB9000B3FBFF202E30435D2A463032FFA93431CB
:10EBA0002846FFF707FC3878401C3870FF352F35B2
:10EBB00002F086FE0FE00F483F38FEF736FF0028D0
:10EBC00005D00D481530FEF730FF002801D1E020B8
:10EBD000E0E60A20DEE600BF002C00D0EBE60020D5
:10EBE000D8E6000099290020AE250020605C0020B6
:10EBF000AD2500200A280020BE250020129F00001D
:10EC0000505F0000F0B506460D460024D00701D045
:10EC1000521C92B200230EE0287831F0E7FE070183
:10EC20006878AD1C31F0E2FE07432046641CA4B2B4
:10EC300037549B1C9BB29342EED3F0BD30B50023FA
:10EC400019E0CC5C2409092C03D830345D0044550C
:10EC500002E037345D004455CC5C2407240F092CB6
:10EC600004D830345D002D186C7003E037345D003B
:10EC70002D186C705B1C9342E3D330BD01781229D0
:10EC800001D9012070474078312801D9012070470F
:10EC9000022903D1292801D901207047002070479B
:10ECA0000178242901D9012070474178592901D9D7
:10ECB000012070478078592801D901207047002031
:10ECC000704700781938082801D3012070470020C8
:10ECD00070470000F0B585B04E2670278A4C00289A
:10ECE0007DD004A80FF07CFF0025A0283ED0684608
:10ECF000007C022873D8234601221121032011F041
:10ED00005DFA82A00022039010231146019600951F
:10ED10000294902010F0C0FC80A0002203901023E9
:10ED20001146019700950294902010F0B5FC7EA149
:10ED30009220002203910190102300950294114625
:10ED4000902010F0A9FC0FF065FF14202BF020F8A4
:10ED50000FF060FF14202BF01BF80FF05BFF7D20FD
:10ED6000C0002BF015F8012005B0F0BD23460122AC
:10ED70001121032011F022FA6FA00022039010232A
:10ED80001146019600950294902010F085FC6DA02C
:10ED900000220390102311460197009502949020C1
:10EDA00010F07AFC6BA092210022019103901023B5
:10EDB000009502941146902010F06EFC0FF02AFF8F
:10EDC00014202AF0E5FF0FF025FF14202AF0E0FFC1
:10EDD0000FF020FF10F0AEFB002805D100E04EE060
:10EDE00010F0FEFA982848D004A80FF0F9FEA028E9
:10EDF000F0D0C8202AF0CCFF04A80FF0F1FE68463E
:10EE0000007C02283BD8234601221121032011F067
:10EE1000D5F93EA0002203901023114601960095DB
:10EE20000294902010F038FC3CA0002203901023A4
:10EE30001146019700950294902010F02DFC3AA104
:10EE40009220002203910190102300950294114614
:10EE5000902010F021FC0FF0DDFE14202AF098FF26
:10EE60000FF0D8FE14202AF093FF0FF0D3FE7D2080
:10EE7000C0002AF08DFF012076E7012074E710F032
:10EE80008BFF7228F8D1234601221121032011F0B3
:10EE900095F934A02C2100231425019103900E2212
:10EEA000009502941946184610F0F6FB31A0002395
:10EEB00003901C221946019600950294184610F002
:10EEC000EBFB24A0002303902A221946019700950A
:10EED0000294184610F0E0FB10F02CFB0028FBD148
:10EEE00010F07EFA0D2803D09828F5D101203BE7D9
:10EEF00010F052FF0028EFD12346012211210320F8
:10EF000011F05CF900202FE7FFFF0000B5E7B3D850
:10EF1000B5E7D1B9B9FDB5CD00000000B2BBD4CA88
:10EF2000D0EDB4F2D3A10000C7EBB3E4B5E7BAF378
:10EF3000D4D9CAD400000000B5E7B3D8B2BBD4DA44
:10EF4000CEBB0000C7EBD7B0C9CFB5E7B3D8D4D993
:10EF5000CAD40000B0B43CB7B5BBD83ECDCBB3F6F5
:10EF600000000000B4F2D3A1BBFAC8B1D6BD2E2E6A
:10EF70002E000000B0B43CC8B7C8CF3EB4F2D3A155
:10EF800000000000F0B5A3B0064620211BA8FEF744
:10EF9000E9FC202113A8FEF7E5FC14210BA8FEF7DD
:10EFA000E1FC142106A8FEF7DDFC534D10AC002E49
:10EFB00068D010F005FB0FF08FFD50A00A21C3268A
:10EFC0000023019103900822009602953C211846E7
:10EFD00010F062FB4C482C21002301910390082281
:10EFE000009602953C21184610F056FB702147A070
:10EFF00003220191009203900021102302951C220C
:10F00000084610F049FB10A810F088F80121E01C18
:10F010002EF0E8FF06460121A01C2EF0E3FF074674
:10F02000022110A82EF0DEFF3DA1019102900123E4
:10F030000022039704960095A621142011F038FAB7
:10F040000121A01D2EF0CEFF06460121601D2EF0ED
:10F05000C9FF07460121201D2EF0C4FF34A10191F4
:10F06000029001230022039704960095A621D22046
:10F0700011F01EFA7D20002323221421000205F046
:10F0800095FA36E010A810F049F80121E01C2EF0A6
:10F09000A9FF06460121A01C2EF0A4FF074602216D
:10F0A00010A82EF09FFF1EA10191029001230022C3
:10F0B000039704960095A621142011F0F9F9012177
:10F0C000A01D2EF08FFF06460121601D2EF08AFF45
:10F0D00007460121201D2EF085FF15A10191029008
:10F0E00001230022039704960095A621D22011F057
:10F0F000DFF9002023B0F0BDFFFF0000D6D0B9FA41
:10F10000D2F8C1AA00000000445F0800C7EBCBA200
:10F11000BFA8BBF2D1A1D4F1C8B7C8CF000000008E
:10F1200025642F253032642F253032640000000022
:10F13000253032643A253032643A2530326400009A
:10F14000FFB587B00D460798FEF744FC04466048BB
:10F15000002700786E1C00282DD06801014605901C
:10F160000122002011F01EF9F1B25A4E012233465D
:10F17000284611F023F80A9810F0ACFF0122002075
:10F18000059911F00FF90121084611F0F5F80998D9
:10F1900001286CD002287DD0324601210020079B37
:10F1A00011F046F90121084611F0E6F8002010F0B0
:10F1B00091FF0BB0F0BDE800411B00221046069104
:10F1C00011F0F0F8F1B2434E00223346284610F019
:10F1D000F5FF0A9810F07EFF00221046069911F004
:10F1E000E1F80021012011F0C7F8099801280FD09B
:10F1F000022828D0002132460846079B11F018F952
:10F200000021012011F0B8F8002010F063FFD0E7D2
:10F21000202210216846FEF79EFB68460774102CDA
:10F2200000DD10241020001BC10F08184010684496
:10F2300022460799FEF76FFB00216B4632460846CF
:10F2400011F0F6F8DCE7202210216846FEF783FB78
:10F25000684607741020001B68440799FEF7DCFB22
:10F2600000216B463246084611F0E2F8C8E720223A
:10F2700010216846FEF76FFB68460774102C00DD0E
:10F2800010241020001BC10F0818401068442246AB
:10F29000079900E008E0FEF73EFB6B46324601218D
:10F2A000002011F0C5F87DE7202210216846FEF706
:10F2B00052FB684607741020001B68440799FEF74C
:10F2C000ABFB6B4632460121002011F0B1F869E733
:10F2D00000240020FFFF0000F7B508461446002C6C
:10F2E00016D06421FEF79CFA05460F4608460A210F
:10F2F000FEF796FA060138460A21FEF791FA0098C1
:10F300000E4300192038C6772846641E002CE8D129
:10F31000FEBD0000FFB587B00126002500240027B0
:10F32000734900200870129803002CF0FCF9267D28
:10F3300014171A1D202326292C2F3235383B3E4125
:10F3400044474A4D505356596164686B7D7D6E7DCC
:10F35000725D75787B7D67A569A465E06CA568A47E
:10F3600062E06EA570A45FE073A565A45CE072A581
:10F3700074A459E078A57BA456E077A57DA453E05A
:10F380007FA55FA450E07EA580A44DE084A587A45E
:10F390004AE08AA58CA447E088A572A444E087A52A
:10F3A00074A441E085A556A43EE08BA586A43BE06D
:10F3B00089A56CA438E088A58BA435E08FA582A42C
:10F3C00032E08EA567A42FE08CA587A42CE0002650
:10F3D00076A429E000268DA426E000268FA423E051
:10F3E000002692A496A71FE0002699A49DA71BE0E3
:10F3F0000026A1A418E00026A2A4A6A714E00026D7
:10F40000A8A411E07EA5ABA40EE00026ADA4B1A790
:10F410000AE0B5A5B7A407E0BBA552A404E0BAA5CD
:10F4200071A401E0B8A5BBA41298002839D0012E20
:10F4300005D1BB4B01220B21032010F0BFFE002D94
:10F4400012D0002E03D0284606F08EFB0CE00021DF
:10F450000A22B34801920B46009102900A46039596
:10F460000121002010F018F9002C0CD00021AC482C
:10F470002C220B4601920091029003940E2201214E
:10F48000002010F009F9002F0BD0A5494E220020D2
:10F49000019202910346039700901C22012110F073
:10F4A000FBF81298042819D01399149804903C235F
:10F4B00000221098059302920391119900900191F6
:10F4C00007A80FC80FF0A2FF12991A2904D0C11C77
:10F4D00001D0011D00D100200BB0F0BD119809F042
:10F4E0002BFAC11C01D0011DF6D10020F4E7000069
:10F4F00006240020D4F6BCD3B2D9D7F7D4B100008B
:10F50000C7EBCAE4C8EBB2D9D7F7D4B1BAC53A0051
:10F51000C9BEB3FDB2D9D7F7D4B10000B2CECAFD8F
:10F52000C9E8D6C300000000C7EBCAE4C8EBC9E8CD
:10F53000D6C3C3DCC2EB3A00B2D9D7F7D4B1C7A95E
:10F54000B5BD0000C7EBCAE4C8EBB2D9D7F7D4B158
:10F55000C3DCC2EB3A000000D6F7B9DCB8C4C3DCA8
:10F5600000000000C7EBCAE4C8EBD0C2C3DCC2EBAA
:10F570003A000000C7EBD4D9B4CECAE4C8EB3A00D5
:10F58000D6D5B6CBBDE2CBF800000000C7EBCAE48D
:10F59000C8EBB2D9D7F7D4B1C3DCC2EB000000008E
:10F5A000B9F1D4B1B9DCC0ED00000000C7EBCAE48A
:10F5B000C8EBD6F7B9DCC3DCC2EB0000B2D9D7F791
:10F5C000D4B1B8C4C3DC0000C7EBCAE4C8EBD4AD07
:10F5D000C3DCC2EB3A000000D0DEB8C4B9DCC0ED39
:10F5E000D4B1C3DCC2EB0000C7EBD4D9CAE4D2BBB0
:10F5F000B1E9D0C2C3DCC2EB3A000000D0DEB8C42F
:10F60000B0B2C8ABC3DCC2EB00000000C7EBCAE479
:10F61000C8EBD4ADC6BED6A4BAC50000C7EBCAE4D9
:10F62000C8EBD4ADB2CEBFBCBAC50000C7EBCAE4CC
:10F63000C8EBD4ADBDBBD2D7C8D5C6DA0000000038
:10F6400028D4C220D4C220C8D520C8D5293A000069
:10F65000C7EBCAE4C8EBD4ADBDBBD2D7CAB1BCE4DA
:10F660000000000028CAB1CAB120B7D6B7D620C35F
:10F67000EBC3EB20293A0000C7EBCAE4C8EBBFA8F4
:10F68000BAC50000C7EBCAE4C8EBBFA8D3D0D0A767
:10F69000C6DA000028C4EA20C4EA20D4C220D4C2BA
:10F6A000293A0000C7EBCAE4C8EBCADAC8A8C2EB23
:10F6B00000000000C7EBCAE4C8EBB0B2C8ABC3DCC3
:10F6C000C2EB3A00D2B5CEF1D4B1B5E7BBB0C9E8D0
:10F6D000D6C30000C7EBCAE4C8EBD2B5CEF1D4B1B3
:10F6E000B5E7BBB000000000CFB5CDB3B9DCC0EDCD
:10F6F00000000000C7EBCAE4C8EBB9DCC0EDD4B130
:10F70000C3DCC2EB00000000B9A6C4DCB2E9D1AF93
:10F7100000000000C7EBCAE4C8EBC3DCC2EB00008A
:10F72000FFFF0000FFB5C9B0FF21013109A8FEF7B6
:10F7300019F9142104A8FEF715F900240025002664
:10F74000734800270770539803002BF0ECFF33AA8F
:10F750001B1E202225272A2D3036393C3F5A5D605A
:10F760006366696C6F7275788E9194979A9D9FA26B
:10F77000A5A8AAAAAAAAAAAAAAAAAAAAAAAAAAAAF0
:10F78000AA33AA0063A466A58BE069A489E06CA4EF
:10F7900087E060A46EA584E071A482E073A477A5DD
:10F7A0007FE072A477A57CE070A478A579E06FA4CF
:10F7B0007AA576E07DA481A573E06CA483A570E0B2
:10F7C0006AA486A56DE069A488A56AE067A48CA5F3
:10F7D0001E2109A8FEF7C6F80B228CA109A8FEF786
:10F7E0009AF84C98FEF7F6F8C6B20BA832460330EA
:10F7F0004C99FEF790F8252009A98919C87209AE1D
:10F800004FE085A487A54CE089A48DA549E088A494
:10F810008DA546E08FA493A543E08EA494A540E077
:10F820008CA496A53DE08BA497A53AE099A49DA54C
:10F8300037E098A49FA534E0A3A4A8A531E0ACA428
:10F84000132104A8FEF78EF80A22ADA104A8FEF742
:10F8500062F85298FEF7BEF8024606A802305299A6
:10F86000FEF759F804ADA9A61BE0ACA4AEA518E0BC
:10F87000AAA4B2A515E0B4A4B7A512E0BAA4BDA588
:10F880000FE0C0A4C3A50CE0C7A40AE0CAA475A5F4
:10F8900007E0C9A476A504E0C7A478A501E0C6A442
:10F8A00079A55398002826D0C64B01220B210320AE
:10F8B00010F084FC002C02D0204606F055F9002DF3
:10F8C0000BD0C0482C210023019102900E220097FA
:10F8D0000395012118460FF0DFFE002E0BD0B9482A
:10F8E0004E210023019102901C22009703960121D2
:10F8F00018460FF0D1FE5299549878220290019741
:10F900000392009149A80FC80FF0C4FD4DB0F0BD9F
:10F9100006240020C9CCBBA7C9E8D6C3000000005C
:10F92000C7EBCAE4C8EBC9CCBBA7BAC53A00000014
:10F93000C9CCBBA7D6D0CEC4C3FBB3C60000000061
:10F94000C9CCBBA7D3A2CEC4C3FBB3C60000000082
:10F95000C7EBCAE4C8EBD6D5B6CBBAC53A000000AF
:10F96000D7D3D3A6D3C3C3FBB3C60000CFB5CDB3A3
:10F97000B2CECAFDC9E8D6C300000000C1F7CBAEC5
:10F98000BAC53A00C5FAB4CEBAC53A00C8C8C3F47D
:10F99000B4F2D3A1C1AACAFD00000000B4F2D3A101
:10F9A000C5A8B6C828302D2D33290000C9A8C2EB40
:10F9B000B2CECAFDC9E8D6C300000000C9A8C2EB98
:10F9C000B4F2D3A1C1AACAFD00000000D6D8B7A2E4
:10F9D000B4CECAFDC9E8D6C300000000B5C8B4FD66
:10F9E000CAB1BCE4C9E8D6C300000000D7EEB4F346
:10F9F000BDBBD2D7B1CACAFDC9E8D6C3000000005A
:10FA0000D0A1B7D1B1C8C0FD000000002020202047
:10FA10002020B5B1C7B03A00C9E8D6C35450445508
:10FA200000000000C7EBCAE4C8EB545044553A004C
:10FA300047505253B2CECAFDC9E8D6C300000000F9
:10FA4000BDD3C8EBB5E33A0041504EBAC5C2EB3A5C
:10FA500000000000CDA8D1B6B2CECAFDC9E8D6C319
:10FA600000000000D7A8CDF84950B5D8D6B73A0065
:10FA7000D7A8CDF8B6CBBFDA3A000000B9ABCDF8C5
:10FA80004950B5D8D6B73A00B9ABCDF8B6CBBFDA46
:10FA90003A000000C0EBCFDFBDBBD2D7BFD8D6C67F
:10FAA00000000000C0EBCFDFC9CFCBCDB4CECAFD84
:10FAB00000000000D7D4B6AFC9CFCBCDC0DBBCC6E9
:10FAC000B1CACAFD00000000D7EEB4F3CDCBBBF540
:10FAD000BDF0B6EEC9E8D6C300000000C7EBCAE42B
:10FAE000C8EBCDCBBBF5D0C2CFDEB6EE0000000038
:10FAF000C3DCD4BFCBF7D2FDC9E8D6C300000000F9
:10FB0000B5B1C7B0CBF7D2FD3A200000CAE4C8EBCC
:10FB10003A2830302D2D393929000000D6F7C3DCC2
:10FB2000D4BFC9E8D6C30000CAE4C8EBCBF7D2FD06
:10FB3000BAC52830302D2D3939290000CAE4C8EB68
:10FB4000C3DCD4BFD6B53A00BBFABEDFBAC5C2EB40
:10FB5000C9E8D6C300000000C7EBCAE4C8EBBBFA93
:10FB6000BEDFBAC53A000000B2A6BAC5B2E2CAD436
:10FB700000000000C7EBCAE4C8EBB4FDB2A6BAC5EA
:10FB8000C2EB3A00C8D5C6DA2FCAB1BCE4C9E8D680
:10FB9000C3000000CAE4C8EB3A2059594D4D444413
:10FBA00048484D4D53530000D0A1C6B1CCA7CDB7A6
:10FBB000C9E8D6C300000000544D53B2CECAFDC9F7
:10FBC000E8D6C300FFFF000010B51FF027FC10BDF2
:10FBD000F3B5E7B00446002C01D014F0B3FD75482E
:10FBE00026216690FDF7BEFE72486A21283006463F
:10FBF000FDF7B8FE6F4D1521253DE81CFDF7B2FE5F
:10FC00001E215DA8FDF7AEFE3246002066990FF07A
:10FC1000FBFCC0B200287DD080074E26664F00282E
:10FC200047DB012C29D03B4601221121032010F093
:10FC3000C5FA002561A02C21019103902B460E22CC
:10FC400002970095294628460FF026FD002C18D073
:10FC50005DA0002303902A22194602970196009581
:10FC600018460FF019FD002C02D096202AF090F8CB
:10FC70000FF0EAFC022069B0F0BD012010F0EAFAB2
:10FC8000D7E755A0002303901C221946029701963E
:10FC9000009518460FF000FD52A17020002303913B
:10FCA00001902A2202970095194618460FF0F4FC9D
:10FCB000D9E70FF0C9FC3F486946401F4079887575
:10FCC0003C481B30407BC8754BA16698FDF761FE30
:10FCD00000281BD048A16698FDF75BFE421B253A21
:10FCE0005DA86699FDF769FE43A16698FDF751FE90
:10FCF000411C04225AA8FDF760FE3FA16698FDF75B
:10FD000048FE411D03225CA8FDF757FE6898332882
:10FD100007D000E01AE058A8007C322818D0362816
:10FD200016D0244805225AA90D38FDF7F4FD5DA927
:10FD300015220131E81CFDF7EEFD6846807D19387B
:10FD4000102833D30FF080FC032094E7012092E7C2
:10FD5000012C27D03B4601221121032010F02EFA5E
:10FD60000121022010F0CCF900246D46D0C523A05B
:10FD7000039023460E22214620460FF08DFC22A13F
:10FD800070200023039101901C22029700941946D1
:10FD900018460FF081FCC82029F0FAFF0FF054FC40
:10FDA000042068E7012010F055FAD9E70FF04CFC69
:10FDB000002060E785320020FFFF0000CBA2BFA833
:10FDC000B4EDCEF300000000B0B43CC8A1CFFB3EC0
:10FDD000BCFCCDCBB3F60000C7EBBCCCD0F8CBA2BB
:10FDE000BFA80000BBF2B0B43CC8A1CFFB3EBCFC36
:10FDF000CDCBB3F6000000003D000000B1BEBFA8AF
:10FE0000CEAA4943BFA80000C7EBB2E5C8EB4943FF
:10FE1000BFA83E3E3E00000010B56421484329F0D3
:10FE2000E4FF10BD01462A39102905D32A2803D042
:10FE3000232801D0002070470120704770B5044688
:10FE40000D46002C01D110F0EDFB002C04D1002058
:10FE50000FF094F860280FD028461DF09DFE002179
:10FE600060200FF0FDF800200FF088F8602803D024
:10FE70000AF010F8002070BD01263603002C04D1D2
:10FE800030460FF07BF860280FD000201EF0CEF82F
:10FE9000314660200FF0E4F830460FF06FF860282C
:10FEA00003D009F0F7FF002070BD01267603002C77
:10FEB00004D130460FF062F860280ED001F030FA1D
:10FEC000314660200FF0CCF830460FF057F860282C
:10FED0000ED009F0DFFF002070BDDA480FF04EF8B9
:10FEE000D9490870D748801C0FF048F8D7490870E6
:10FEF00003263603002C04D130460FF03FF860286B
:10FF00000FD028461EF0B4F8314660200FF0A8F854
:10FF100030460FF033F8602803D009F0BBFF002013
:10FF200070BD0126B603002C04D130460FF026F830
:10FF300060280FD000201EF091F9314660200FF0AC
:10FF40008FF830460FF01AF8602803D009F0A2FFAE
:10FF5000002070BD03267603002C04D130460FF03C
:10FF60000DF860280FD000201EF08CF9314660207B
:10FF70000FF076F830460FF001F8602803D009F052
:10FF800089FF002070BD07263603002C04D13046BF
:10FF90000EF0F4FF60280FD000201EF095F93146D6
:10FFA00060200FF05DF830460EF0E8FF602803D0C7
:10FFB00009F070FF002070BD07267604002C04D1E4
:10FFC00030460EF0DBFF60280FD000201EF0A2F9B3
:10FFD000314660200FF044F830460EF0CFFF602825
:10FFE00003D009F057FF002070BDA7267603002C30
:10FFF00004D130460EF0C2FF60280FD000201EF062
:020000040005F5
:10000000AEF9314660200FF02BF830460EF0B6FF07
:10001000602803D009F03EFF002070BD6F26B603B4
:10002000002C04D130460EF0A9FF60280FD000202C
:100030001DF0CEFE314660200FF012F830460EF073
:100040009DFF602803D009F025FF002070BD804E81
:10005000002C04D130460EF091FF60280FD0002014
:100060001DF0DCFE314660200EF0FAFF30460EF047
:1000700085FF602803D009F00DFF002070BD5326D6
:10008000F603002C04D130460EF078FF60280FD024
:1000900000201DF0E9FE314660200EF0E1FF304601
:1000A0000EF06CFF602803D009F0F4FE002070BD54
:1000B000684E002C04D130460EF060FF60280FD04F
:1000C00000201DF0F7FE314660200EF0C9FF3046DB
:1000D0000EF054FF602803D009F0DCFE002070BD54
:1000E000DD26B603002C04D130460EF047FF602811
:1000F0000FD000201DF004FF314660200EF0B0FF4D
:1001000030460EF03BFF602803D009F0C3FE00200C
:1001100070BD0326B604002C04D130460EF02EFF2D
:1001200060280ED00EF0ECFD314660200EF098FFF6
:1001300030460EF023FF602803D009F0ABFE00200C
:1001400070BD05267604002C04D130460EF016FF53
:1001500060280ED00EF0BEFD314660200EF080FF0C
:1001600030460EF00BFF602803D009F093FE00200C
:1001700070BD0B263604002C04D130460EF0FEFE76
:1001800060280ED00EF090FD314660200EF068FF22
:1001900030460EF0F3FE602803D009F07BFE00200D
:1001A00070BD01263604002C04D130460EF0E6FE68
:1001B00060280FD000201DF0C8FE314660200EF0F0
:1001C0004FFF30460EF0DAFE602803D009F062FEE1
:1001D000002070BD03263604002C04D130460EF0FA
:1001E000CDFE60280FD000201DF0D4FE31466020E7
:1001F0000EF036FF30460EF0C1FE602803D009F045
:1002000049FE002070BD05263604002C04D130467E
:100210000EF0B4FE60280FD000201DF0E1FE314644
:1002200060200EF01DFF30460EF0A8FE602803D0BF
:1002300009F030FE002070BD294620460FF02CF852
:10024000012070BD022000006325002064250020ED
:1002500000A0220000603000F0B599B004462720CD
:10026000604342494018203045794149284607F00B
:1002700047FD3F482030407D3E4988743C4820304F
:10028000817D3C48C1743C490420FDF7D8FB3848C7
:100290003A30FDF7CAFB0646314668462CF052FB61
:1002A000042269463548FDF736FB31483E30FDF7FC
:1002B000BCFB06463249FDF7C2FB05222C494E31F4
:1002C0002F481038FDF727FB0522294942312C48D9
:1002D0000B38FDF720FB0522254948312848801FAF
:1002E000FDF719FB27490620FDF7A9FB25480C302F
:1002F000FDF79BFB064606221D495431FDF70BFB1B
:100300002049A8310220FDF79AFB1E48B430FDF7C2
:100310008CFB1D490A7E0270497E41701A49C91E34
:10032000887F15492A31FDF78AFB13482A30FDF7EB
:100330007CFB064610483630FDF777FB0746324611
:1003400011491C31FDF7E7FA0F482630FDF76DFB28
:10035000064632460DA168462BF096F90D49887E77
:10036000694606F039FE19B0F0BD0000F0590020D2
:10037000665F00204B800020912B0020DD7700205D
:1003800007670020AE290020A96100202530366CC7
:1003900064000000EC420020017809064278120453
:1003A0005118827812025118C0784018704770B501
:1003B000002334E0CC5C2546613D052D02D8573C36
:1003C000E5B20CE02546413D052D02D8373CE5B2AB
:1003D00005E0303C092C01D8E5B200E000255B1CAB
:1003E000934215D2CC5C2646613E052E02D8573C7E
:1003F000E4B20FE02646413E052E02D8373CE4B277
:1004000008E0303C092C01D8E4B203E0002401E00C
:100410005B1E00242D0125435C0805555B1C93429F
:10042000C8D370BDF0B506460D460024D00701D0F4
:10043000521CD2B200230EE0287830F0D7FA070120
:100440006878AD1C30F0D2FA07432046641CE4B251
:1004500037549B1CDBB29342EED3F0BDF7B582B0AC
:100460000E4617460025F80701D07F1CBFB20024B6
:1004700011E0307830F0BAFA010101917078B61CC1
:1004800030F0B4FA019901432846029A6D1CADB2CE
:100490001154A41CA4B2BC42EBD305B0F0BD0000C3
:1004A00010B5042207A10948FDF735FA002021F014
:1004B00097F8C4B2862C01D0872C01D110F078F9BE
:1004C000204610BD30333230000000005B35002084
:1004D00030B5002319E0CC5C2409092C03D8303452
:1004E0005D00445502E037345D004455CC5C240780
:1004F000240F092C04D830345D002D186C7003E0F3
:1005000037345D002D186C705B1C9342E3D330BD13
:1005100070B5044615462A462046FFF7D9FF00214C
:10052000615570BD30B503465508D00701D06D1C2C
:10053000EDB200220DE00C78491C200930F014FACD
:1005400018702007000F30F00FFA58709B1C521CD7
:10055000D2B2AA42EFD30020187030BD00B50022FD
:10056000002908D00178401C0907090F002902D092
:1005700064225143CAB203781809303030F036FA99
:100580000A21484312181807000F303030F02EFAB5
:100590001018C0B200BD01090A2200075143000F24
:1005A0000818C0B270470000F0B55A4B9D4405468C
:1005B0000027012D15D15848FDF737FA002829D01A
:1005C00055480C30FDF731FA02905348FDF72DFAEB
:1005D00098220190029909F0D3FA00281AD1012734
:1005E00018E0022D16D14C481530FDF71EFA0028F0
:1005F00010D049482130FDF718FA029046481530CE
:10060000FDF713FA98220190029909F0B9FA00282F
:1006100000D10127002F03D13E4B5B429D44F0BD2A
:100620003D48D230FDF701FA04463B48D230FDF791
:10063000FCF906463848DE30FDF7F7F93246014648
:10064000029003A8FDF767F9002C1AD13348C47E45
:10065000002C15D03048DE30FDF7E7F922462F494F
:100660001C310290FDF757F92B49D2312046FDF796
:10067000E6F92B480079802108432949087100E0F8
:1006800000242548D230FDF7D0F9002817D0972054
:100690002CF0BCFD2048D230FDF7C7F902901E486F
:1006A000DE30FDF7C2F901900146FFA83830029A0A
:1006B000FDF731F91848D230FDF7B7F90446FFAA23
:1006C00010322146FFA838300EF0C8FD1249E7313C
:1006D0001420FDF7B4F91048F330FDF7A6F9142201
:1006E000FFA910310290FDF716F9F0B20A49D23194
:1006F000FDF7A5F90848D230FDF797F902900648B2
:10070000DE30FDF792F9019003A9029AFDF703F993
:1007100000BF81E7CCF7FFFF49280020A66000203A
:10072000CE75002070B515461E46002D17DD3468C5
:10073000020A02D0020A2270641C2070641CE8B213
:100740007F2D02DC2070641C03E081222270607027
:10075000A41C2A462046FDF7DEF86019306070BD03
:1007600010B5B4B08C202CF051FD0446F020204090
:10077000002818D014211BA8FDF7F4F88020204091
:1007800000280CD00948FDF750F9002807D1642152
:1007900002A8FDF7E7F8002101A829F015FD8C203B
:1007A0002CF034FD0446204634B010BDC32900208F
:1007B000F0B58C460022104E1BE0815C0C068118BF
:1007C0004B781B0423438C7824021C43CB782343AF
:1007D00000240A4975682F465F4003D56D004D40DF
:1007E000756001E06D0075605B00641C202CF1D326
:1007F000121D6245E1D3F0BD68250020B71DC1047C
:1008000070B588B00546144604200322009289B2D0
:1008100005AB2A460EF09AFF002837D06846007DC7
:100820001E4C4E2528260A2804D0012818D0002066
:1008300008B070BD234601220B2103200FF0BEFC3F
:1008400017A00023039016221946009601950294E2
:1008500018460EF021FF782029F09AFA0020E7E7E9
:10086000234601220B2103200FF0A8FC10A0002337
:1008700003901622194600960195029418460EF030
:100880000BFF782029F084FA0020D1E7082205A97F
:100890002046FDF740F80020CAE70000FFFF0000F7
:1008A0004D4143B2CECAFDB2BBBACFB7A8000000DB
:1008B0004D4143CBF7D2FDB2BBB4E60070B5002486
:1008C0001248FDF7B2F800280CD01048FDF7ADF83B
:1008D000C5B20E480C30FDF7A8F8064629462DF0A3
:1008E000DFFB04190A48FDF7A0F800280CD00848DF
:1008F000FDF79BF8C5B206480C30FDF796F80646A2
:1009000029462DF0CDFB0419204670BDED290020AD
:100910008C27002010B50346187808607F2802D87D
:100920000220107022E05B1C0868812805D118782D
:100930005B1C08600320107018E0086882280BD147
:100940001C785B1C2002086018785B1C0C68204334
:1009500008600420107009E00868802804D1002095
:1009600008600320107001E0012010BD0020FCE7AA
:10097000F3B581B006460020009033463446029914
:1009800054E00878712802D00878722804D1491CF4
:100990000A78491C134601E00020FEBDA01EC4B227
:1009A00008789F2816D1491C0878491C182801D0BE
:1009B0000520F2E70A78491C042A03D0002A01D056
:1009C0000620EAE78918D01C181AC3B2D01C201AD6
:1009D000C4B204E00878862801D00020DDE71D4677
:1009E0000020009015E00878491C862801D00020DE
:1009F000D3E70A78491C8918971C0098C019C0B21F
:100A00000090901C834201DA0720C6E7901C181A58
:100A1000C3B2002BE7DC0098A84201D00120BCE75C
:100A2000AC4201DA0820B8E7601BC4B2002CA8D1A0
:100A30000020B2E7F1B584B00024002555480178C4
:100A400000290DD0002707702EF0A0FC5248534E0D
:100A50000078002807D05248007800280ED011E016
:100A6000002005B0F0BD002102200FF049FB334605
:100A70000122112103200FF0A1FB09E00121032035
:100A80000FF03EFB33460122112103200FF096FBAD
:100A900004982C213422012806D0022810D00328E3
:100AA0001AD004282FD123E03EA000230092019108
:100AB000039002960E22194618460EF0EDFD22E034
:100AC0003DA0002300920191039002960E22194648
:100AD00018460EF0E1FD16E03CA0002300920191C3
:100AE000039002960E22194618460EF0D5FD0AE034
:100AF0003BA0002300920191039002960E2219461A
:100B000018460EF0C9FD2DF026FC002838D14E21E4
:100B100038A001910390002110231C220097029617
:100B200008460EF0B9FD2BE00EF004FD002806D1BA
:100B30000EF058FD012102200FF0E2FA00240020FF
:100B40000FF082FD002804D164210FF097FD641C92
:100B5000E4B2022C14D90024AD1CEDB20EF05AF808
:100B6000142029F015F90EF055F8142029F010F989
:100B70000EF050F8142029F00BF90E2D00D90025A5
:100B80002DF0E9FB0028CFD00DF0A6FF0EF018FCE9
:100B9000002066E70524002000240020FFFF00005D
:100BA000022400202020202020BDBBD2D7C8A1CF06
:100BB000FB202020202000002020202020BDBBD2B0
:100BC000D7CAA7B0DC202020202000002020202031
:100BD00020BDBBD2D7B3C9B9A62020202020000059
:100BE0002020202020CFD4CABECDEAB1CF202020A3
:100BF00020200000C7EBB0CEB3F64943BFA80000E9
:100C000010B51448C07A202108431249C87212480E
:100C1000C07AC007C00F00281AD010488078082179
:100C20000840082814D10E49202004F07DFB00283C
:100C30000ED00C48C078042108430A49C87001202E
:100C4000094908700348C07A802108430149C872E5
:100C5000002010BDEB7600208B6E0020EA420020C1
:100C6000379F0000CB750020B725002030B500234A
:100C7000136008E0CD1AC45C6D1EED00AC40156831
:100C80002C4314605B1C8B42F4D330BD30B585B06F
:100C900004A80DF0A5FF6846007C04282AD80DF0B2
:100CA00011FF002415A04E21164D01910390102331
:100CB000224602950094214690200EF0EDFC12A0F1
:100CC0007021002201910390102302950094114697
:100CD00090200EF0E1FC0DF09DFF142029F058F853
:100CE0000DF098FF142029F053F80DF093FF962093
:100CF00029F04EF8002005B030BD0000B5E7C1BFB7
:100D0000B5CD0000FFFF0000C7EBBCB0CAB1B3E433
:100D1000B5E7000030B587B000200690059006A822
:100D20000AF0FCFB05A80AF0C9FB0598002805D0CD
:100D30000698002802D0012007B030BD1CA004F0A6
:100D400013FF1D481D4C0078002805D100222346C2
:100D5000114601200FF058FA19A02C210023342548
:100D6000019103900E2200950294194618460EF048
:100D700093FC17A04E210023019103901C220095A3
:100D80000294194618460EF087FC16A07021002325
:100D9000019103902A2200950294194618460EF0FC
:100DA0007BFCFF202D3028F0F3FF0020C4E700007B
:100DB000CCE120CABE00000000240020FFFF00009C
:100DC000202020CEDEB9ABD4BFBCB0B2CECAFD006D
:100DD00020CFC8CFC2D4D8B9ABD4BFBCB0B2CECA72
:100DE000FD0000002020CFC2D4D8B3C9B9A6D4D901
:100DF000D6D8CAD400000000F7B586B00020059010
:100E00006B48FCF712FE447806980078029006982A
:100E100045782B002AF087FC0A060B1621090A7C6C
:100E20007D7E7FBF01200590B8E000BF00BF614814
:100E3000807C012803D05F48807C142801D10120E8
:100E40000590ABE05B48807C012803D15948807C49
:100E5000142801D001200590A0E002988006800EA1
:100E6000052830D008DC01280DD0022812D0032834
:100E700017D0042847D11FE01E282FD01F2834D0B8
:100E8000202840D138E080202040002801D00120D7
:100E900005903BE040202040002801D00120059033
:100EA00034E080202040002805D020202040002869
:100EB00001D00120059029E010202040002801D019
:100EC0000120059022E010202040002805D020209D
:100ED0002040002801D00120059017E0202020406C
:100EE000002801D00120059010E0F02020400028CB
:100EF00001D10120059009E0E007C00F002801D0D2
:100F00000120059002E00120059000BF00BF45E0F0
:100F100000BF00BF00BF2848FCF787FD0278694684
:100F20000A744178684641742448FCF77EFD014606
:100F300002786846027349784173022203A904A823
:100F4000FCF75DFD002800D028E0042107982DF073
:100F5000A7F80190042108982DF0A2F80746FFF7A2
:100F6000ADFC0646062D03D10198864210D315E04C
:100F7000072D03D1019886420AD80FE0082D02D12F
:100F8000BE4205D30AE0092D02D1BE4200D805E0D9
:100F90000120059002E00020059000BF00BF0598E9
:100FA000002802D0002009B0F0BD0120FBE70000BE
:100FB000D82C0020EC42002087260020E92D0020BC
:100FC000F0B5FFB084B004460D462246294603A87A
:100FD000FCF7A1FC2E4601AA02A9304620F080FEB3
:100FE0000746B81B0090019900980818A04203D248
:100FF00001207FB004B0F0BD0020FAE770B50646CE
:101000000D4600245648FCF710FD002815D0554821
:10101000FCF70BFD002810D052481538FCF705FDF1
:1010200000280AD05048FCF700FD002805D04E48A3
:101030001530FCF7FAFC002831D14948FCF7F5FCE3
:10104000002802D149A02DF06DFE4648FCF7EDFCCA
:10105000002802D146A02DF065FE42481538FCF765
:10106000E4FC002802D143A02DF05CFE3E48FCF7D2
:10107000DCFC002802D140A02DF054FE3A48153087
:10108000FCF7D3FC002802D13DA02DF04BFE3E48DA
:10109000C078202108433C49C870022070BD304808
:1010A000FCF7C3FC012802D13848C47910E02C4871
:1010B000FCF7BBFC03280BD13448C079000433494A
:1010C000C91D4978090240183049C91D897844185A
:1010D000022C06D0032C04D02D48844201D00320DA
:1010E000DCE721481530FCF7A0FC012802D1294893
:1010F000C47A11E01C481530FCF797FC03280BD18B
:101100002448C07A000423490B3149780902401869
:1011100020490B3189784418022C06D0032C04D0C6
:101120001B48844201D00320B8E7012E03D0032ED0
:1011300001D00420B2E7012E01D12C7806E02878F6
:101140000004697809024018A9784418032C04D0D7
:101150000F48844201D00420A0E700209EE7000051
:10116000B72C00209D280020312E00200A383500A1
:101170000A3335000A3334000A31303300000000EE
:101180000A31303400000000CB7500204B7900207C
:10119000010001006B7B002038B5002400946A46F2
:1011A00002210E480DF004FF009800280AD0009498
:1011B0006A4602210A480DF0FBFE0098002807D07D
:1011C000002038BD04F0C0F904F0DCF8012038BD7F
:1011D00004F0BAF904F0D6F8012038BD10000C0074
:1011E00010000A0030B597B00024169420210EA8F4
:1011F000FCF7B8FB202106A8FCF7B4FB029403948B
:10120000049405940194124DE81CFCF7E3FBC2B270
:10121000E91C0EA8FCF77FFB01A809F060FE02A8FC
:101220000AF030F916A80AF036F902A8FCF710FC0B
:1012300008490C766A461279012A06D12A4680327C
:10124000526E824201D80120087617B030BD0000EE
:1012500060320020C039002030B58DB0202104A8B4
:10126000FCF780FB002400940194029403946846E8
:101270000AF01AF96846FCF7EBFB05460CA809F0E2
:1012800037FE08A8027C01210848094B012A08D131
:10129000084A526EAA4204D841765C7101200DB012
:1012A00030BD447659710020F9E70000C0390020B4
:1012B00048240020E032002010B50446002200201F
:1012C00008E0A35C0D2B07D00A2B05D0401CC0B250
:1012D000521CD2B28A42F4D310BD02460B46002102
:1012E00000BF481CC1B2505CBB2800D1F9E7505C7C
:1012F000BA2800D101E00120704700BF197000201A
:10130000FAE7000010B50548FCF78FFB04780A2CBB
:1013100001DD012010BD0020FCE70000E02A0020D4
:1013200010B5B2B0FF22C6216846FCF714FB0BF0E3
:10133000CBFF0BF0ABFF0BF08DFF6A46A0211448EA
:101340000DF0AEFE0BF02EFE0120FDF727FA022075
:10135000FDF724FA0320FDF721FA0420FDF71EFA19
:101360000520FDF71BFA0A4C0AA20E3C0621204676
:101370000DF096FE20460DF001FE08490870A01CF5
:101380000DF0FCFD06490870012032B010BD0000D0
:1013900010200000FFFFFFFFFFFF0000632500207B
:1013A0006425002010B500243148FCF73EFB0028DE
:1013B00016D03048FCF739FB002811D02D481538DD
:1013C000FCF733FB00280BD029483F38FCF72DFBF6
:1013D000002805D026482A38FCF727FB002801D131
:1013E000012010BD2248FCF720FB012802D1224831
:1013F000C47910E01E48FCF718FB03280BD11E48E7
:10140000C07900041C49C91D4978090240181A49CD
:10141000C91D89784418032C04D01848844201D08F
:101420000220DEE712482A38FCF7FFFA012803D130
:1014300011484038847E12E00D482A38FCF7F5FA4E
:1014400003280CD10C484038807E00040A49263914
:101450004978090240180849263989784418032C2C
:1014600004D00648844201D00220BAE70020B8E741
:10147000B72C00209D2800204B790020010001009E
:1014800030B585B004A80AF00FFF012102200EF04C
:1014900037FE1D480078FF280AD01C480078002835
:1014A00028D06846007C002826D0002005B030BD3A
:1014B00001200EF0CFFE16A02C210023184D32245F
:1014C000019103900E2202950094194618460EF0E1
:1014D000E3F814A04E210023019103901C220295F1
:1014E0000094032118460EF0D7F8C82028F050FCCD
:1014F0000120DBE70020D9E7FFF70CFC002801D032
:101500000020D3E70120D1E76425002040330020EC
:1015100020202020D6D5B6CBCEB4C7A9B5BD0000BB
:10152000FFFF0000202020C7EBCFC8D7F6504F5355
:10153000C7A9B5BD00000000F0B5FFB0FFB0FBB01B
:10154000234901AC2046FCF70DFA2248076B2248DC
:1015500068440AF06FFF21486844008C002834D0AA
:1015600000252DE028460AF0ADFF06461848012365
:10157000464301AA282130460AF070FF207801284E
:101580001CD16068B84219D13046012301AA104924
:101590000AF064FF0F48214613222731FD38FCF77B
:1015A0002EFA00280AD10B488038416EA06881428B
:1015B00004D101207FB07FB07BB0F0BD6D1CADB217
:1015C00006486844008C8542CCD30020F2E7000036
:1015D000DC05000060330020E0050000C0050000CD
:1015E00030B503460C4600210BE08806050E605D11
:1015F000C210012A01DB1E2A01DDFE2030BD481C7D
:10160000C1B29942F1DB0020F8E730B503460C4641
:1016100000210BE08806050E605DC210012A01DB87
:101620001E2A01DDFE2030BD481CC1B29942F1DB0B
:101630000020F8E770B505460C4600262B48FCF75D
:10164000F4F9002810D02A48FCF7EFF900280BD055
:1016500027483F30FCF7E9F9002805D02448153821
:10166000FCF7E3F9002807D12248C078202108437D
:101670002049C870012070BD1C48FCF7D6F901282C
:1016800002D11D48C67910E01848FCF7CEF90328AE
:101690000BD11948C07900041749C91D49780902BE
:1016A00040181549C91D89784618032E04D01348DF
:1016B000864201D00220DEE7012D03D0032D01D0A8
:1016C0000320D8E7012D01D1267806E02078000418
:1016D000617809024018A1784618032E04D0074803
:1016E000864201D00320C6E70020C4E7B72C0020C3
:1016F0009D280020CB7500204B79002001000100BF
:10170000F7B50E46002400BF15216143364A8918FB
:1017100008460D30FCF789F90099884200D10EE0A7
:1017200015216143304A891808460D30FCF77DF9D0
:10173000002801D1FF20FEBD601CC4B2E4E700BF59
:101740000298047025461520684327494018807880
:10175000022817D1002E01D10020ECE715206843A4
:10176000214940180079B04201D20120E3E7152059
:1017700068431D4940180079B04201D90220DAE7D8
:101780000020D8E7152068431749401880780128C1
:1017900027D13B2C25DA2C46062060431349085CF0
:1017A000A0421ED106216143104A8918881CFCF70B
:1017B0003CF90746002F01D0002E01D10020BAE7E6
:1017C000002F03D0BE4201D90120B4E706206043B8
:1017D000064940184778BE4201D20220ABE70020FC
:1017E000A9E70020A7E70000B925002018D20800CB
:1017F00030B58DB0054600240C940B940A940994DE
:1018000008940794069405940CA80AF013FE0BA8FC
:101810000BF076FA0AA80AF0A5FD09A809F004F869
:1018200008A809F06FFB07A809F09AFC06A809F0C0
:10183000BDFC05A80AF0B4FE0C990B9801430A9868
:10184000014309980143089801430798014306980A
:1018500001430598014302D000200DB030BD002D9A
:1018600011D00DF039F90B4908A04E2202910192D6
:1018700003900021102300941C2208460DF00CFF59
:10188000C82028F085FA0120E7E70000CEDEBDBBC6
:10189000D2D70000FFFF000010B507490020FCF779
:1018A000CEF805492A310020FCF7C9F80349002089
:1018B000FCF7C5F810BD0000CB270020D325002081
:1018C00010B50D490020FCF7BAF80C490020FCF7D0
:1018D000B6F80B490020FCF7B2F809491531002091
:1018E000FCF7ADF807490020FCF7A9F80349A83137
:1018F0000020FCF7A4F810BD992900204D270020F6
:10190000BE250020E92A002010B500201CF0A6FC0E
:1019100000201CF0B7FC00201CF0FCFC00201CF098
:101920001EFD00201CF054FA00201CF077FA002065
:101930001CF09AFA00201CF0BDFA00201CF0E0FA1E
:1019400000201CF002FB00201CF024FB00201CF0F7
:1019500047FB10BD10B502460B46002108E0147885
:10196000521C002C01D0FF2C00D100E002E0491CE9
:101970009942F4D300BF994201D1002010BDC8B2F2
:10198000FCE7000010B50749074B0978002904D08F
:10199000012211210EF012FC10BD002207210EF0D1
:1019A0000DFC10BD00240020FFFF000030B5BDB0CD
:1019B0000446342104A8FBF7D5FF29480546FCF767
:1019C00009F8014604AA284617F0A2FC082225A11E
:1019D00004A8FCF714F8002802D0012C14D01AE057
:1019E000234B0122072102200EF0E8FB232121A036
:1019F00017F09EFC252123A017F09AFC0120FEF78A
:101A00000BFA24203DB030BD21480BF07FFD0028AB
:101A100001D01F20F6E701221EA11F4806F072FD2B
:101A20003AA811A93BAA0092019102902AAB3CAAC4
:101A300037A939A82BF004FF0446042C0AD0012C46
:101A400008D016A00020C043032C05D0002C05D0E0
:101A50000220D7E70220D5E71D20D3E70020D1E7F9
:101A6000D1340020A0000003330101060000000073
:101A7000FFFF0000B4BFB5E7D7D3C7AEB0FCBFA827
:101A800000000000CEDEB7A8C1AABBFA000000002B
:101A90004433002080000000279F00006475705FC1
:101AA00066696C6500000000F7B5244B0D469D4447
:101AB00000212348C943416000240126F60235E095
:101AC00001AF20493846FBF74DFF1F486844006CC2
:101AD000012807D11C48012368443A463146806BEF
:101AE0000EF040FA18496944886B80198863A4197C
:101AF000314601A8FEF75CFE2F1BB74216D201AC9F
:101B000010492046FBF72EFF0F486844006C01285F
:101B100007D10D480123684422463946806B0EF0F8
:101B200021FAB9B22046FEF743FE2C46AC42C7D399
:101B30000348044B406810339D44F0BDC8F7FFFFD5
:101B4000682500203408000000080000F0B54A4C69
:101B50000646A5440D461F46FF2405342146474846
:101B60006844FBF7FFFE214645486844FBF7FAFE50
:101B7000211FBCA8FBF7F6FE42A00068BB904248BC
:101B8000FF212D316844FBF7EDFE002102A82EF065
:101B9000C9FDFF3D013D012F06D1384A01237019CF
:101BA0006A4419020EF0DEF9002433E0FF223749BF
:101BB000FCA8FBF7D0FE012F05D10123FCAAD90216
:101BC00030460EF0CFF90120C00236182418024624
:101BD000FCA902A82EF032FE2D49281B6944886713
:101BE0000121C902884215D2FF222849FCA8FBF72F
:101BF000B2FE27486844846F012F05D10123FCAA57
:101C0000D90230460EF0AEF92246FCA902A82EF009
:101C100015FE2C46AC42C9D31E4D02A86D44294680
:101C20002DF0B4FE0120C00270A98884821079AC26
:101C30001949A01CFEF712FCBBA90322881FFBF761
:101C40006AFEEA1FFD3AFF23D01F013378A9FD3851
:101C500000940EF01FF92946FF39402249392846E1
:101C6000FBF7CDFE002804D00120094C7C34A544AC
:101C7000F0BD0020F9E7000084F0FFFF280D000010
:101C8000240C0000010001004C0E0000340800008C
:101C9000000F00002C0E000028DC0800FEB51E48D6
:101CA000C26E816E006F0192009102901B4E3078DF
:101CB000A52801D002241AE0032418E0322805D018
:101CC000332812D10EE024F01BFA0EE03078A5285C
:101CD00002D008F0D7F908E002200DF0E9FC08F086
:101CE000D1F902E0032C0BD00125002D12D08A225D
:101CF000214668462DF0D0FB05463128E3D0DDE7CC
:101D000003200DF0D5FC01211E200EF0E9FD28F086
:101D10008BF8EAE7FEBD0000405F08005725002071
:101D2000024610780B78984202DA0020C0437047D0
:101D300010780B78984201D10020F8E710780B78E2
:101D4000984201DD0120F2E700BFF0E7F0B595B061
:101D50007E48FBF76AFE02907C480C30FBF765FE7C
:101D6000019001460FA8029AFBF7D5FD7748FBF7D3
:101D70005CFEC6B27648FBF758FE002805D07448D2
:101D80000C30FBF752FE077800E000277148FBF7A4
:101D90004CFE00280DD06F48FBF747FE02906D48BF
:101DA0000C30FBF742FE019001460DA8029AFBF7AA
:101DB000B2FD0024BAE06849204605F0A1FF0028E2
:101DC00000D0B1E064482030807C002800D1ABE036
:101DD00061482030827C411C0FA8FBF710FE0028D0
:101DE00070D15D482030807CB04205DA5A482030FE
:101DF000C07C002800D097E0584909782722514339
:101E0000574A8918881C32460FA9FBF784FD5348AE
:101E100000782721484352494018203086703907FE
:101E2000090F4E480078272250434D4A11544B4821
:101E30000078272148431146085C002806D110216C
:101E40004648007827225043454A11540021434810
:101E5000007827225043424A80182030C1703F4802
:101E600001780078272250433D4A801820300171C4
:101E70003A49097827225143394A891808461230CD
:101E80001021FBF76FFD31481530FBF7CEFD002820
:101E900016D02E481530FBF7C8FD02902B48213094
:101EA000FBF7C3FD2D4901900978272251432C4AA5
:101EB000891808461230029A0199FBF72CFD24E09C
:101EC00000250AE02FE00FA94A5D690004ABC8189D
:101ED00024A129F0D9FB681CC5B2B542F3DB04A8E4
:101EE000FBF778FDC0B203900398102801DD1020A5
:101EF00003901A49097827225143194A891808463C
:101F0000123004A9039AFBF706FD14480078272134
:101F10004843134940182030447110480078401C51
:101F20000E49087005E000BF601CC4B2202C00DA26
:101F300041E700BF14980CF09DFF1398844202D132
:101F4000012015B0F0BD0020FBE70000BE250020F9
:101F5000F5270020AB2F0020665F0020A230002074
:101F6000F05900202530327800000000F3B587B02A
:101F70000E4600200590012002900025307861284F
:101F800002D0032009B0F0BD3746079C0020019025
:101F900000F050F80020039043E00020059004A8D2
:101FA00006AB05AA21460090384610F0DDFC054638
:101FB000FF2824D10598009029461C48049B069AC6
:101FC0002CF0B0FE0598241A05983F18002C00D17B
:101FD0000025069861280FD10499059841180398A7
:101FE000091A01980818019000200390029800280F
:101FF0000DD00020029014E00498039011E000241A
:10200000002D04D0012D00D102252846BAE708484A
:10201000FBF70BFD002803D0FFF798FE00F00AF84D
:1020200000BF002CB9D10020ACE700002CDE080076
:10203000BE25002010B509490020FBF700FD074927
:1020400015310020FBF7FBFC05490020FBF7F7FCEE
:1020500004490020FBF7F3FC10BD0000BE25002062
:10206000F5270020AB2F0020F0B5FFB0FFB0A9B0DE
:1020700007460021FFA884308161272181612A4819
:102080000178FFA88430806941430A46274901A8A6
:10209000FBF741FC264BFFA8843082692248017877
:1020A00001A8FBF7E7FB01240AE068460179272035
:1020B000604301AA105C814200D005E0601CC4B2FC
:1020C000194800788442F0DB00BF25462C46012DDC
:1020D00023DD174BFFA884302946826901A8FBF74E
:1020E000C9FB01240AE0684601792720604301AA60
:1020F000105C814200D003E0601CC4B2AC42F2DB51
:1021000000BF26463446012E07DD094BFFA8843068
:10211000314682690AA8FBF7ADFB08A8007A38703F
:102120007FB07FB029B0F0BDA2300020F059002070
:10213000211D05007FB50D460024009401940294F2
:1021400003946A46062117F0EBF8684604730020F2
:1021500069460A5C302A0BD0081804460EF020FDB0
:10216000064621462846FBF757FC304604B070BDB2
:10217000401C0C28EDDB03A12846FBF74DFC042096
:10218000F4E70000302E3030000000001CB50C4693
:1021900011462BF027FF014668462BF08EFF0422E4
:1021A00069462046FBF7B7FB1CBD0146212903DB2E
:1021B0007D2901DC08467047002901D10020FAE79B
:1021C0002020F8E7F7B58CB01446202104A8FBF7CF
:1021D000C9FB0025EC4800260670002206210220DB
:1021E0000CF08AFC0D98E94F21286ED243007B4405
:1021F0009B885B009F446900200025007900BC009B
:10220000DE00F200220169017D01BB01CC03EE0377
:102210000D042004250436043B04400473047804B0
:102220008E04930498049D04A204AE04BA04C60468
:10223000FF040D0512051705D5A1DAA003F036FC41
:10224000A0E30E22DBA104A8FBF765FB012C14D050
:10225000022C17D0032C1AD0042C1DD0052C20D012
:10226000062C23D0072C26D0082C29D0092C2DD0C1
:102270000A2C30D00B2C33D0E2E7D2A104A803F013
:1022800015FCDDE7D2A104A803F010FCD8E7D3A128
:1022900004A803F00BFCD3E7D2A104A803F006FCCA
:1022A000CEE7D3A104A803F001FCC9E7D2A104A89A
:1022B00003F0FCFBC4E7D3A104A803F0F7FBBFE7DE
:1022C000D4A104A803F0F2FBBAE7EEE3D5A104A879
:1022D00003F0ECFBB4E7D7A104A803F0E7FBAFE7FA
:1022E000D7A104A803F0E2FBAAE70E22D7A104A815
:1022F000FBF711FB012C0CD0022C0FD0032C1ED0AD
:10230000042C21D0052C24D0062C27D0072C2AD031
:1023100096E7D2A104A803F0C9FB91E7D4A104A8D1
:1023200003F0C4FBD5A14E200023039101901C2291
:1023300002970096194618460DF0AEF980E7D4A131
:1023400004A803F0B3FB7BE7D7A104A803F0AEFB1E
:1023500076E7DBA104A803F0A9FB71E7DDA104A8DF
:1023600003F0A4FB6CE7E1A104A803F09FFB67E77F
:102370000E22E3A104A8FBF7CEFA012C06D0022C12
:1023800009D0032C0CD0042C0FD059E7E0A104A8ED
:1023900003F08CFB54E7E2A104A803F087FB4FE7AE
:1023A000E5A104A803F082FB4AE7E9A104A803F031
:1023B0007DFB45E70E22EBA104A8FBF7ACFA012C4C
:1023C00002D0022C05D03BE7EAA104A803F06EFB83
:1023D00036E7ECA104A803F069FB31E70A22EEA17D
:1023E00004A8FBF798FA012C0AD0022C0DD0032C7C
:1023F00010D0042C13D0052C16D0062C19D01FE7B2
:10240000E8A104A803F052FB1AE7EAA104A803F02C
:102410004DFB15E7EBA104A803F048FB10E7EEA184
:1024200004A803F043FB0BE7F0A104A803F03EFB74
:1024300006E7F2A104A803F039FBFDE3F3A001468F
:102440000EC9C06804AE0EC60790012C10D0022C35
:1024500013D0032C16D0042C19D0052C1CD0062C1C
:102460001FD0072C22D0082C25D0092C28D0E3E33C
:10247000EBA104A803F01AFBDEE3ECA104A803F02F
:1024800015FBD9E3EDA104A803F010FBD4E3EEA102
:1024900004A803F00BFBCFE3EEA104A803F006FBB6
:1024A000CAE3F0A104A803F001FBC5E3F2A104A86C
:1024B00003F0FCFAC0E3F5A104A803F0F7FABBE3CC
:1024C000F7A104A803F0F2FAB6E30E22F8A104A8DB
:1024D000FBF721FA012C02D0022C05D0ACE3F8A1C5
:1024E00004A803F0E3FAA7E3F8A104A803F0DEFAD6
:1024F000A2E30E22F9A104A8FBF70DFA012C0ED0DD
:10250000022C11D0032C14D0042C17D0052C1AD077
:10251000062C1DD0072C20D0082C23D08CE3F3A14F
:1025200004A803F0C3FA87E3F3A104A803F0BEFAFA
:1025300082E3F5A104A803F0B9FA7DE3F5A104A8AC
:1025400003F0B4FA78E3F6A104A803F0AFFA73E35A
:10255000F7A104A803F0AAFA6EE3FAA104A803F015
:10256000A5FA69E3FCA104A803F0A0FA64E30E2233
:10257000FEA104A8FBF7CFF9012C02D0022C01D058
:102580005AE3FBE1FFE1000006240020FFFF00000A
:10259000CEDECFDFCAC7B7F1CEAAB3A4C1B4BDD3D4
:1025A0000000000047505253B2CECAFDC9E8D6C35E
:1025B00000000000B4ABCDB3C0E0BDBBD2D7BFAA12
:1025C000B9D80000C6D5CDA8CFFBB7D10000000018
:1025D000CFFBB7D1B3B7CFFA00000000CDCBBBF52E
:1025E00000000000D3E0B6EEB2E9D1AF0000000079
:1025F000D4A4CADAC8A80000D4A4CADAC8A8B3B759
:10260000CFFA0000D4A4CADAC8A8CDEAB3C9C7EB90
:10261000C7F30000D4A4CADAC8A8CDEAB3C9CDA8CC
:10262000D6AA0000D4A4CADAC8A8CDEAB3C9B3B701
:10263000CFFA0000C0EBCFDFBDE1CBE3000000002C
:10264000BDE1CBE3B5F7D5FB00000000B5E7D7D37C
:10265000CFD6BDF0C0E0BDBBD2D70000BDD3B4A57E
:10266000CABDB5E7D7D3CFD6BDF0CFFBB7D10000F9
:10267000BFECCBD9D6A7B8B60000000028B7C7BDBD
:10268000D3B5E7D7D3CFD6BDF0CFFBB7D129000064
:10269000B5E7D7D3CFD6BDF0D6B8B6A8D5CABBA7B5
:1026A000C8A6B4E600000000B5E7D7D3CFD6BDF08A
:1026B000B7C7D6B8B6A8D5CABBA7C8A6B4E60000A7
:1026C000B5E7D7D3CFD6BDF0CFD6BDF0B3E4D6B5FE
:1026D00000000000B5E7D7D3CFD6BDF0CFD6BDF010
:1026E000B3E4D6B5B3B7CFFA00000000B5E7D7D34F
:1026F000CFD6BDF0CDD1BBFACDCBBBF500000000ED
:10270000B5E7D7D3C7AEB0FCC0E0BDBBD2D70000A1
:10271000B5E7D7D3C7AEB0FCCFFBB7D10000000000
:10272000B5E7D7D3C7AEB0FCD6B8B6A8D5CABBA755
:10273000C8A6B4E600000000B5E7D7D3C7AEB0FC2A
:10274000B7C7D6B8B6A8D5CABBA7C8A6B4E6000016
:10275000B5E7D7D3C7AEB0FCCFD6BDF0B3E4D6B59E
:1027600000000000B7D6C6DAB8B6BFEEC0E0BDBB09
:10277000D2D70000B7D6C6DAB8B6BFEECFFBB7D116
:1027800000000000B7D6C6DAB8B6BFEECFFBB7D1AF
:10279000B3B7CFFA00000000BBFDB7D6C0E0BDBBA9
:1027A000D2D70000C1AAC3CBBBFDB7D6CFFBB7D1F0
:1027B00000000000B7A2D0D0BFA8BBFDB7D6CFFBAA
:1027C000B7D10000C1AAC3CBBBFDB7D6CFFBB7D1F1
:1027D000B3B7CFFA00000000B7A2D0D0BFA8BBFDAE
:1027E000B7D6CFFBB7D1B3B7CFFA0000C1AAC3CBDE
:1027F000BBFDB7D6B2E9D1AF00000000C1AAC3CB80
:10280000BBFDB7D6CDCBBBF500000000CAD6BBFAE6
:10281000D0BEC6ACBDBBD2D7BFAAB9D8000000009D
:10282000CAD6BBFACFFBB7D100000000CAD6BBFAAC
:10283000CFFBB7D1B3B7CFFA00000000CAD6BBFABE
:10284000CDCBBBF500000000CAD6BBFAD4A4CADACF
:10285000C8A80000CAD6BBFAD4A4CADAC8A8B3B7BD
:10286000CFFA0000CAD6BBFAD4A4CADAC8A8CDEA07
:10287000B3C9C7EBC7F30000CAD6BBFAD4A4CADAFF
:10288000C8A8CDEAB3C9CDA8D6AA0000CAD6BBFA5B
:10289000D4A4CADAC8A8CDEAB3C9B3B7CFFA000046
:1028A000CAD6BBFAD3E0B6EEB2E9D1AF0000000061
:1028B000D4A4D4BCC0E0BDBBD2D7BFAAB9D8000055
:1028C000D4A4D4BCCFFBB7D100000000D4A4D4BCA6
:1028D000CFFBB7D1B3B7CFFA00000000B6A9B9BAA1
:1028E000C0E0BDBBD2D7BFAAB9D80000B6A9B9BA5B
:1028F000CFFBB7D100000000B6A9B9BACFFBB7D162
:10290000B3B7CFFA00000000B6A9B9BACDCBBBF57A
:1029100000000000B6A9B9BAD4A4CADAC8A8000059
:10292000B6A9B9BAD4A4CADAC8A8B3B7CFFA000016
:10293000B6A9B9BAD4A4CADAC8A8CDEAB3C9C7EB54
:10294000C7F30000B6A9B9BAD4A4CADAC8A8CDEAB8
:10295000B3C9CDA8D6AA0000B6A9B9BAD4A4CADA18
:10296000C8A8CDEAB3C9B3B7CFFA0000C6E4CBFB21
:10297000C0E0BDBBD2D7BFAAB9D80000C8A104A887
:1029800003F094F858E1CAA104A803F08FF853E1CA
:102990000E22CBA104A8FAF7BEFF012C06D0022C10
:1029A00009D0032C0CD0042C0FD045E1C8A104A8F9
:1029B00003F07CF840E1CBA104A803F077F83BE1F9
:1029C000CDA104A803F072F836E1D1A104A803F068
:1029D0006DF831E1D4A003C805910490012C02D018
:1029E000022C11D028E1D3A104A803F05FF8D6A1EE
:1029F0004E200023039101901C2202970096194655
:102A000018460CF049FE17E1D3A104A803F04EF8D4
:102A100012E1C5A003C805910490012C02D0022C3C
:102A200005D009E1D2A104A803F040F804E1D5A142
:102A300004A803F03BF8FFE0D7A1DBA003F036F8D1
:102A4000FAE0DDA1E1A003F031F8E4A14E2000237B
:102A5000039101901C2202970096194618460CF02B
:102A60001BFEE9E0E1A1D9A003F020F8E4E0E4A135
:102A7000D6A003F01BF8DFE0E5A04268016880689B
:102A8000059204910690012C0AD0022C0ED0032C42
:102A900011D0042C14D0052C17D0062C1AD0CBE062
:102AA000DFA104A803F002F8C6E0C1E0E1A104A898
:102AB00002F0FCFFC0E0E4A104A802F0F7FFBBE0D5
:102AC000E6A104A802F0F2FFB6E0E8A104A802F033
:102AD000EDFFB1E0EAA104A802F0E8FFACE0EDA14F
:102AE000CBA002F0E3FFA7E0C9A0426801688068BC
:102AF000059204910690012C02D0022C05D09BE097
:102B0000E9A104A802F0D2FF96E0EBA104A802F02C
:102B1000CDFF91E0ECA1BEA002F0C8FF8CE0EFA1D8
:102B2000F1A002F0C3FF87E068A1F2A002F0BEFFAF
:102B300082E0F3A1A5A002F0B9FF7DE0B4A0426855
:102B400001688068059204910690F0A104A802F043
:102B5000ADFF71E0AEA04268016880680592049103
:102B60000690F0A104A802F0A1FF65E0F2A042687F
:102B700001688068059204910690F3A104A802F010
:102B800095FF59E0F1A042680168806805920491C0
:102B90000690012C0CD0022C0FD0032C12D0042C48
:102BA00015D0052C18D0062C1BD0072C1ED043E0C6
:102BB000EAA104A802F07AFF3EE0EBA104A802F02B
:102BC00075FF39E0EBA104A802F070FF34E0ECA13E
:102BD00004A802F06BFF2FE0ECA104A802F066FF4E
:102BE0002AE0EDA104A802F061FF25E0EFA104A80E
:102BF00002F05CFF20E0F1A0426801688068059265
:102C000004910690012C17D1F0A104A802F04EFF08
:102C100012E02EA1F0A002F049FF0DE0F3A1F6A012
:102C200002F044FF08E0F8A1F3A002F03FFF03E048
:102C3000F9A166A002F03AFF0D98030028F073FD99
:102C40002117121818181818181818181212121E0E
:102C5000122E2D122C2B2A29281812272826282834
:102C600025241700F0A1F2A00C9A02F033FF46E2EF
:102C7000F1A1F4A00C9A02F02DFF40E2F3A1F6A01E
:102C80000C9A02F027FF3AE234E22DE226E21FE23C
:102C900018E211E20AE203E2FCE1F5E1E2E1000000
:102CA000B4C5CCF5BFA8CFD6BDF0B3E4D6B500000F
:102CB000B4C5CCF5BFA8CFD6D5CABBA7D6B5000042
:102CC000BDBBD2D7CAE4C3DCBFD8D6C60000000063
:102CD000CFFBB7D1B3B7CFFACAC7B7F1CAE4C3DCE9
:102CE00000000000D4A4CADAC8A8B3B7CFFACAC794
:102CF000B7F1CAE4C3DC0000D4A4CADAC8A8CDEA9C
:102D0000B3C9B3B7CFFACAC7B7F1CAE4C3DC00008E
:102D1000D4A4CADAC8A8CDEAB3C9C7EBC7F3CAC7F7
:102D2000B7F1CAE4C3DC0000BDBBD2D7BFD8D6C65A
:102D300000000000CFFBB7D1B3B7CFFACAC7B7F1D5
:102D4000CBA2BFA80000000028BAACCBF9D3D0CFEB
:102D5000FBB7D1C0E0290000D4A4CADAC8A8CDEAE4
:102D6000B3C9B3B7CFFACAC7B7F1CBA2BFA80000A7
:102D7000BDE1CBE3CAC7B7F1D7D4B6AFC7A9CDCBB6
:102D800000000000BDE1CBE3CAC7B7F1B4F2D3A1A4
:102D9000C3F7CFB800000000C0EBCFDFC9CFCBCD69
:102DA000B7BDCABD00000000C0EBCFDFBDBBD2D7AE
:102DB000BFD8D6C600000000CAC7B7F1CAE4C8EB46
:102DC000D6F7B9DCC3DCC2EB00000000C6E4CBFBE5
:102DD000BDBBD2D7BFD8D6C600000000B3B7CFFA6C
:102DE0002FCDCBBBF5C0E0BDBBD2D700CAC7B7F172
:102DF000D4CAD0EDCAD6CAE4BFA8BAC50000000044
:102E0000C4ACC8CFCBA2BFA8BDBBD2D700000000C6
:102E1000CFB5CDB3B2CECAFDC9E8D6C3000000001D
:102E2000CAC7B7F1B4F2D3A1D6D0CEC4CAD5B5A51E
:102E3000D0D00000CAC7B7F1B4F2D3A1D6D0CEC467
:102E4000B7A2BFA8D0D00000C7A9B9BAB5A5CAC754
:102E5000B7F1B4F2D3A1D3A2CEC40000C7BFD6C687
:102E6000CFC2D4D8BADAC3FBB5A50000BDBBD2D758
:102E7000CAC7B7F1D3C5CFC8BBD3BFA800000000F5
:102E8000CAC7B7F1C6F4D3C3B5E7C7A9B9A6C4DCAE
:102E900000000000BDD3CAD5B3ACCAB1C1A2BFCC3B
:102EA000B3E5D5FD00000000C4DACDE2D6C3C3DC33
:102EB000C2EBBCFCC5CC0000C4DACDE2D6C3B7C7B8
:102EC000BDD3C9E8D6C30000B3B7CFFABDBBD2D7D4
:102ED000B4F2D3A1B8BABAC500000000C9E8D6C39D
:102EE000444553CBE3B7A800444553C4A3CABDC966
:102EF000E8D6C300CCE1CABED2F4C9E8D6C300000C
:102F0000BDB5BCB6B4A6C0ED00000000D4A4CADABA
:102F1000C8A8CAC7B7F1B4F2D3A1C8ABBFA8BAC595
:102F200000000000B4FDBBFABDE7C3E6CBA2BFA81A
:102F3000B7BDCABD00000000CBABC3E2BFAAB9D881
:102F4000C9E8D6C3000000004943BFA8D0A1B6EE2F
:102F5000CBABC3E2BFAAB9D800000000C3E2C7A947
:102F6000B1EACAB600000000434443564DB1EACA74
:102F7000B600000042494EB1ED42B1EACAB60000C7
:102F800042494EB1ED41B1EACAB60000C3E2C3DC2A
:102F9000B1EACAB600000000B7C7BDD3BFECCBD9B9
:102FA000D2B5CEF1B1EACAB6000000004943BFA8CD
:102FB000D0A1B6EECBABC3E200000000C9A8C2EBC3
:102FC000BFAAB9D8C9E8D6C300000000C9A8C2EB9F
:102FD000D5FDC9A800000000CAB5CAB1CAD5BFEE68
:102FE000BFAAB9D8C9E8D6C300000000C9A8C2EB7F
:102FF000B7BDCABD00000000C9A8C2EBB2CECAFD71
:10300000C9E8D6C300000000C9A8C2EBC7B9B9A47B
:10301000D7F7C4A3CABD000050424F43BDB5BCB6EC
:10302000B4A6C0ED00000000302EB7F10000000093
:10303000312ECAC700000000302EB2BBD6A7B3D6CF
:1030400000000000312ED6A7B3D60000302EBDE11F
:10305000CBE3C7B000000000312EC1AABBFAC7B055
:103060000000000043A0702118220023009201916B
:10307000039002972A22194618460CF00DFB0021F6
:103080003D480DF079FA3AE03CA13FA00C9A02F0DD
:1030900021FD34E03EA140A00C9A02F01BFD2EE081
:1030A0003FA141A00C9A02F015FD28E040A143A0E9
:1030B0000C9A02F00FFD22E042A144A00C9A02F00B
:1030C00009FD1CE043A145A00C9A02F003FD16E0A7
:1030D00044A147A00C9A02F0FDFC10E047A149A0D2
:1030E0000C9A02F0F7FC0AE048A14AA00C9A02F000
:1030F000F1FC04E049A14CA00C9A02F0EBFC642125
:1031000004200DF0BBFA0224E44304200DF09CFAE5
:10311000002805D1642104200DF0B0FA6D1CEDB239
:103120000CF008FA002807D01E2DEED9002001F07F
:10313000C3FD20460FB0F0BD00250CF051F99928D1
:103140000BD09A280CD00D280DD098280DD03128FE
:103150000DD03028D9D10320ECE70120C043E9E7A6
:103160000020C043E6E70120E4E72046E2E7022032
:10317000E0E70000B7F100007DEF0000302ED4A49E
:10318000CADAC8A800000000312ECFFBB7D100007A
:10319000302ECFC2B1CA0000312EC1A2BFCC000078
:1031A000302ECDE2D6C30000312EC4DAD6C30000E3
:1031B000302EB2BBB4F2D3A100000000312EB4F225
:1031C000D3A10000302E444553000000312E33447B
:1031D00045530000302EB9D800000000312EBFAAA0
:1031E00000000000302ECAB5CAB1CAD5BFEE00003B
:1031F000312EC6D5CDA8CFFBB7D10000302EB9D81F
:10320000B1D50000312EC6F4D3C30000302ED6F75E
:10321000C9A80000312EB1BBC9A80000302ED7D4F8
:10322000B6AFC2D6D1AF0000312EB0B4BCFCB4A54D
:10323000B7A20000704710B5421ED3175B0F9B1852
:10324000DC10DB08401EDB00C31A0A5D8020D8407A
:1032500082430A5510BD000070B592B006A906ACB5
:103260000AAD002814D000200AF0D0FC8120049080
:103270000A2147A0241D0291009001950394002388
:1032800006224E217D20FCF745F8C0B2002849D027
:103290000220029000243EA0009001950395049422
:1032A000234602224E219620FCF734F8C0B20028B3
:1032B0003AD002220AA909A8FDF7B4F808A80079B3
:1032C000FDF769F933494E260978334D88422DD1EF
